:100000000C9446000C9465000C9465000C946500FB
:100010000C9465000C9465000C9465000C946500CC
:100020000C9465000C9465000C9465000C946500BC
:100030000C9465000C9465000C9465000C946500AC
:100040000C9465000C9465000C9465000C9465009C
:100050000C94AD050C9432080C9465000C9465006A
:100060000C9465000C9465000C9465000C9465007C
:100070000C9465000C94A8080C9465000C94650021
:100080000C9465000C9465000C94650011241FBE4F
:10009000CFEFD0E4DEBFCDBF11E0A0E0B1E0E0EBF8
:1000A000F2E100E00BBF02C007900D92A439B10746
:1000B000D9F711E0A4E9B1E001C01D92A93BB10755
:1000C000E1F70E9467000C9456090C940000DF933E
:1000D000CF930F92CDB7DEB719828AE090E00E94ED
:1000E000340986EB96E00E94DD0284EE96E00E94E1
:1000F000EF0280E060E048E920E430E00E9466061C
:100100000E9402050E944E050E9493050E948705E9
:10011000837089838981882F90E0880F991FFC0163
:10012000E15FFE4F2081318181E691E0B9010E94BB
:100130002F038981882F90E0880F991FFC01E85DCB
:10014000FE4F2081318184E691E0B9010E942F03A6
:100150008981882F90E0880F991FFC01E25CFE4F97
:100160002081318187E691E0B9010E942F038981C6
:10017000882F90E0880F991FFC01E95AFE4F2081DB
:1001800031818AE691E0B9010E942F030E94CE00DE
:1001900080E090E00F90CF91DF910895DF93CF93AF
:1001A000CDB7DEB70E94A20590939601809395018A
:1001B0008FE090E00E943409F5CFDF93CF930F9248
:1001C000CDB7DEB78983E8EBF0E089818083E9EB86
:1001D000F0E01082ECEBF0E084E080830F90CF91B0
:1001E000DF910895DF93CF9300D000D00F92CDB769
:1001F000DEB79C838B83ECEBF0E084EA8083ECEB4E
:10020000F0E080818823DCF7E9EBF0E08081882F43
:1002100090E0887F90708830910509F04EC0ABEB7C
:10022000B0E0EB81FC818081880F8C93ECEBF0E0F7
:1002300084E88083ECEBF0E080818823DCF7E9EB55
:10024000F0E08081882F90E0887F90708831910560
:10025000A1F51A82EB81FC818381898324C0ABEBF9
:10026000B0E0EB81FC81218132818A81882F90E08E
:10027000F901E80FF91F80818C93ECEBF0E084E842
:100280008083ECEBF0E080818823DCF7E9EBF0E0A1
:100290008081882F90E0887F90708832910569F482
:1002A0008A818F5F8A839A8189819817C0F2ECEBEB
:1002B000F0E084E980831D8206C0ECEBF0E084E985
:1002C000808381E08D838D810F900F900F900F9030
:1002D0000F90CF91DF910895DF93CF9300D000D09E
:1002E0000F92CDB7DEB79C838B83ECEBF0E084EA12
:1002F0008083ECEBF0E080818823DCF7E9EBF0E031
:100300008081882F90E0887F90708830910509F077
:1003100075C0ABEBB0E0EB81FC818081882F90E071
:10032000880F991F81608C93ECEBF0E084E8808368
:10033000ECEBF0E080818823DCF7E9EBF0E08081F2
:10034000882F90E0887F90708034910509F056C026
:100350001A82EB81FC8186818150898324C0ECEB79
:10036000F0E084EC8083ECEBF0E080818823DCF724
:10037000E9EBF0E08081882F90E0887F90708035F5
:100380009105E1F5EB81FC81248135818A81882FFB
:1003900090E0D901A80FB91FEBEBF0E080818C93BE
:1003A0008A818F5F8A839A8189819817C0F2ECEBEA
:1003B000F0E084E88083ECEBF0E080818823DCF7D8
:1003C000E9EBF0E08081882F90E0887F90708035A5
:1003D0009105A1F4EB81FC81248135818981882FED
:1003E00090E0D901A80FB91FEBEBF0E080818C936E
:1003F000ECEBF0E084E980831D8206C0ECEBF0E0DA
:1004000084E9808381E08D838D810F900F900F9020
:100410000F900F90CF91DF910895DF93CF9300D08D
:1004200000D00F92CDB7DEB79C838B83ECEBF0E06E
:1004300084EA8083ECEBF0E080818823DCF7E9EB51
:10044000F0E08081882F90E0887F9070883091055F
:1004500009F0A4C0ABEBB0E0EB81FC818081882F78
:1004600090E0880F991F81608C93ECEBF0E084E8BA
:100470008083ECEBF0E080818823DCF7E9EBF0E0AF
:100480008081882F90E0887F90708034910509F0FA
:1004900085C01A82EB81FC818381898325C0ABEB07
:1004A000B0E0EB81FC81218132818A81882F90E04C
:1004B000F901E80FF91F80818C93ECEBF0E084E800
:1004C0008083ECEBF0E080818823DCF7E9EBF0E05F
:1004D0008081882F90E0887F90708832910509F0A4
:1004E0005DC08A818F5F8A839A8189819817B8F26B
:1004F0001A82EB81FC8186818150898324C0ECEBD8
:10050000F0E084EC8083ECEBF0E080818823DCF782
:10051000E9EBF0E08081882F90E0887F9070803553
:100520009105E1F5EB81FC81248135818A81882F59
:1005300090E0D901A80FB91FEBEBF0E080818C931C
:100540008A818F5F8A839A8189819817C0F2ECEB48
:10055000F0E084E88083ECEBF0E080818823DCF736
:10056000E9EBF0E08081882F90E0887F9070803503
:100570009105A1F4EB81FC81248135818981882F4B
:1005800090E0D901A80FB91FEBEBF0E080818C93CC
:10059000ECEBF0E084E980831D8206C0ECEBF0E038
:1005A00084E9808381E08D838D810F900F900F907F
:1005B0000F900F90CF91DF910895DF93CF9300D0EC
:1005C000CDB7DEB79A83898389819A819093980108
:1005D000809397010F900F90CF91DF910895DF9353
:1005E000CF9300D0CDB7DEB79A83898389819A8172
:1005F00090939A01809399010F900F90CF91DF9182
:100600000895DF93CF9300D00F92CDB7DEB78983E3
:100610007B836A83898182958F70882F90E0FC01AB
:10062000E359FE4F8081EA81FB8180838A819B812F
:10063000DC0111968981882F90E08F709070FC0109
:10064000E359FE4F80818C938A819B81FC01329615
:1006500010820F900F900F90CF91DF9108950F931C
:100660001F93DF93CF93CDB7DEB760970FB6F894A3
:10067000DEBF0FBECDBF9D878C877F876E87E091E1
:100680009701F091980180E40995209197013091AC
:100690009801EC85FD858081F901099520919701EC
:1006A000309198018C859D85FC0131968081F901FE
:1006B00009950EC02091970130919801EE85FF8534
:1006C0008081F90109958E859F8501969F878E8788
:1006D000EE85FF858081882369F7E0919701F0918D
:1006E00098018DE00995E0919701F09198018AE0D9
:1006F000099519822EC08981082F10E0E091990197
:10070000F0919A010995282FCE010296FC01E00F85
:10071000F11F208389818823C9F08981882F90E087
:100720009C0121503040CE010296FC01E20FF31FE4
:1007300080818D3059F48981282F30E0CE010296D6
:10074000FC01E20FF31F80818A3031F089818F5FD5
:10075000898389818A3078F28B81853431F48C8168
:10076000823519F481E0888B01C0188A88896096E7
:100770000FB6F894DEBF0FBECDBFCF91DF911F91B2
:100780000F9108950F931F93DF93CF93CDB7DEB7EB
:1007900060970FB6F894DEBF0FBECDBF9D878C87E4
:1007A0007F876E87E0919701F091980180E4099529
:1007B0002091970130919801EC85FD858081F901A8
:1007C000099520919701309198018C859D85FC01B8
:1007D00031968081F90109950EC0209197013091E1
:1007E0009801EE85FF858081F90109958E859F85A9
:1007F00001969F878E87EE85FF858081882369F724
:10080000E0919701F09198018FE20995E0919701AD
:10081000F091980187E50995E0919701F091980191
:100820008DE00995E0919701F09198018AE0099592
:1008300019822EC08981082F10E0E0919901F09172
:100840009A010995282FCE010296FC01E00FF11FB5
:10085000208389818823C9F08981882F90E09C01B9
:1008600021503040CE010296FC01E20FF31F80813F
:100870008D3059F48981282F30E0CE010296FC0199
:10088000E20FF31F80818A3031F089818F5F898385
:1008900089818A3078F28B81853431F48C8182357C
:1008A00019F481E0888B01C0188A888960960FB698
:1008B000F894DEBF0FBECDBFCF91DF911F910F9196
:1008C00008950F931F93DF93CF93CDB7DEB7629751
:1008D0000FB6F894DEBF0FBECDBF988B8F87698BA4
:1008E0009E01245F3F4F8989B9010E940103E09175
:1008F0009701F091980180E40995E0919701F091BA
:10090000980184E40995E0919701F091980184E5BC
:100910000995E0919701F09198018C850995E091F6
:100920009701F09198018D850995198212C0409127
:100930009701509198018981282F30E08F859889FF
:10094000FC01E20FF31F8081FA01099589818F5F15
:10095000898399818989981750F3E0919701F091E3
:1009600098018DE00995E0919701F09198018AE056
:10097000099519822EC08981082F10E0E091990114
:10098000F0919A010995282FCE010296FC01E00F03
:10099000F11F208389818823C9F08981882F90E005
:1009A0009C0121503040CE010296FC01E20FF31F62
:1009B00080818D3059F48981282F30E0CE01029654
:1009C000FC01E20FF31F80818A3031F089818F5F53
:1009D000898389818A3078F28B81853431F48C81E6
:1009E000823519F481E08A8B01C01A8A8A8962965D
:1009F0000FB6F894DEBF0FBECDBFCF91DF911F9130
:100A00000F910895DF93CF93CDB7DEB7A1E2B0E0A9
:100A1000E1E2F0E0808187608C93A2E2B0E0E2E264
:100A2000F0E0808187608C93CF91DF910895DF9310
:100A3000CF9300D0CDB7DEB789836A838A818823BC
:100A4000A9F0A2E2B0E0E2E2F0E08081482F8981E3
:100A5000282F30E081E090E0022E02C0880F991F1D
:100A60000A94E2F7809584238C9313C0A2E2B0E04D
:100A7000E2E2F0E08081482F8981282F30E081E098
:100A800090E0022E02C0880F991F0A94E2F7842B8F
:100A90008C930F900F90CF91DF910895DF93CF93B8
:100AA000CDB7DEB7A4E2B0E0E4E2F0E08081807F81
:100AB0008C93A5E2B0E0E5E2F0E080818F608C935A
:100AC000CF91DF910895DF93CF9300D0CDB7DEB7FC
:100AD0008A83E3E2F0E08081809589838981282FF1
:100AE00030E08A81882F90E00197A90102C05595D6
:100AF00047958A95E2F7CA0189838981882F90E01A
:100B0000817090700F900F90CF91DF910895DF93D7
:100B1000CF93CDB7DEB7E3E2F0E0808180958F70B0
:100B2000CF91DF910895DF93CF93CDB7DEB781E802
:100B300091E0909386018093850110929E01CF9160
:100B4000DF910895DF93CF93CDB7DEB78091850114
:100B500090918601CF91DF9108951F920F920FB669
:100B60000F9200905B000F9211242F933F934F93AD
:100B70005F936F937F938F939F93AF93BF93EF9305
:100B8000FF93DF93CF930F92CDB7DEB7E6ECF0E0A3
:100B900080818093B30180919E01813009F076C0FD
:100BA00080919D01882F90E02091B301FC01E955CF
:100BB000FE4F208380919D018230A0F480919D01A1
:100BC000882F90E0FC01E358FE4F90818091B301A3
:100BD000981709F455C010929E0180E060E00E94D1
:100BE00017054EC080919D01883009F049C0809161
:100BF0009C01882F90E0880F991F880F991F8156BC
:100C00009E4F9093B5018093B401E091B401F091AF
:100C1000B5018091AC0180838091B4019091B501C0
:100C2000FC0131968091AD0180838091B401909157
:100C3000B501FC0132968091AE0180838091B401B0
:100C40009091B501FC0133968091AF018083809132
:100C5000B4019091B50190938601809385018091B4
:100C60009C011982882311F481E089838981809312
:100C70009C0110929E01A89580E061E00E941705FA
:100C800080919D018F5F80939D0109C08091B30188
:100C90008A3229F410929D0181E080939E010F9089
:100CA000CF91DF91FF91EF91BF91AF919F918F9184
:100CB0007F916F915F914F913F912F910F90009293
:100CC0005B000F900FBE0F901F901895DF93CF938E
:100CD000CDB7DEB727970FB6F894DEBF0FBECDBFF6
:100CE00089836A834B833D832C838981282F30E05D
:100CF0003F832E838E819F81009731F02E813F812B
:100D000021303105B1F029C0E2ECF0E08A81866043
:100D10008083E1ECF0E08B818083E5ECF0E08C8176
:100D20009D81892F99278083E4ECF0E08C8180837A
:100D300014C0EAECF0E08A8186608083E9ECF0E0A0
:100D40008B818083EDECF0E08C819D81892F992748
:100D50008083ECECF0E08C81808327960FB6F894CA
:100D6000DEBF0FBECDBFCF91DF910895DF93CF934C
:100D70000F92CDB7DEB78983E0ECF0E08081882F59
:100D800090E0807290700097B9F3E6ECF0E0898112
:100D900080830F90CF91DF910895DF93CF930F92CF
:100DA000CDB7DEB78983E8ECF0E08081882F90E052
:100DB000807290700097B9F3EEECF0E08981808347
:100DC0000F90CF91DF910895DF93CF93CDB7DEB72A
:100DD000E0ECF0E080818823DCF7E6ECF0E0808155
:100DE000CF91DF910895DF93CF93CDB7DEB7E8ECD5
:100DF000F0E080818823DCF7EEECF0E08081CF9199
:100E0000DF910895DF93CF9300D0CDB7DEB79A83FB
:100E100089830BC0E981FA81208189819A810196B9
:100E20009A838983822F0E94B606E981FA818081A4
:100E3000882381F70F900F90CF91DF910895DF9372
:100E4000CF9300D0CDB7DEB79A8389830BC0E981F9
:100E5000FA81208189819A8101969A838983822FE0
:100E60000E94CD06E981FA818081882381F70F9065
:100E70000F90CF91DF910895DF93CF9300D000D0F2
:100E8000CDB7DEB789837B836A834C838981282F22
:100E900030E0C901880F991F820F931F0196880FB8
:100EA000991FFC01E957FE4F8A819B8191838083C2
:100EB0008981282F30E0C901880F991F820F931F65
:100EC000880F991FFC01E557FE4F8C8180830F909E
:100ED0000F900F900F90CF91DF910895DF93CF93F4
:100EE00000D0CDB7DEB79A83898387E891E09093ED
:100EF000B7018093B60149C0E091B601F091B70106
:100F0000958181E08927882361F0E091B601F09115
:100F1000B7019081E091B601F091B70181819817F6
:100F2000D1F1E091B601F091B70122813381409176
:100F3000B6015091B701FA016181862F90E0D90185
:100F4000A80FB91FE981FA8180818C93862F8F5F6A
:100F5000FA01818389819A8101969A838983E0913C
:100F6000B601F091B7019181E091B601F091B7011E
:100F70008481981729F4E091B601F091B7011182AC
:100F8000E091B601F091B7011582E981FA81808183
:100F9000882309F0B1CF0F900F90CF91DF91089582
:100FA000DF93CF9300D0CDB7DEB79A8389838DE8E6
:100FB00091E09093B7018093B60149C0E091B601EA
:100FC000F091B701958181E08927882361F0E09154
:100FD000B601F091B7019081E091B601F091B701AF
:100FE00081819817D1F1E091B601F091B70122818A
:100FF00033814091B6015091B701FA016181862F8A
:1010000090E0D901A80FB91FE981FA8180818C9302
:10101000862F8F5FFA01818389819A8101969A8355
:101020008983E091B601F091B7019181E091B60119
:10103000F091B7018481981729F4E091B601F091FD
:10104000B7011182E091B601F091B7011582E981F3
:10105000FA818081882309F0B1CF0F900F90CF9152
:10106000DF9108951F920F920FB60F9200905B00D0
:101070000F9211242F933F934F936F937F938F93EE
:101080009F93AF93BF93EF93FF93DF93CF93CDB72E
:10109000DEB787E891E09093B7018093B601E091C5
:1010A000B601F091B701958181E089278823D9F1B4
:1010B00066EC70E0E091B601F091B70122813381D6
:1010C000A091B601B091B7014C91842F90E0F90145
:1010D000E80FF91F8081FB018083842F8F5F8C9341
:1010E000E091B601F091B7019081E091B601F091E5
:1010F000B7018481981729F4E091B601F091B70106
:101100001082E091B601F091B7019081E091B601B3
:10111000F091B7018181981731F4E091B601F09117
:10112000B70181E08583CF91DF91FF91EF91BF916E
:10113000AF919F918F917F916F914F913F912F919F
:101140000F9000925B000F900FBE0F901F901895AC
:101150001F920F920FB60F9200905B000F92112416
:101160002F933F934F936F937F938F939F93AF935F
:10117000BF93EF93FF93DF93CF93CDB7DEB78DE8A7
:1011800091E09093B7018093B601E091B601F091A0
:10119000B701958181E089278823D9F16EEC70E051
:1011A000E091B601F091B70122813381A091B6019F
:1011B000B091B7014C91842F90E0F901E80FF91F2D
:1011C0008081FB018083842F8F5F8C93E091B60137
:1011D000F091B7019081E091B601F091B70184815F
:1011E000981729F4E091B601F091B7011082E091CF
:1011F000B601F091B7019081E091B601F091B7018D
:101200008181981731F4E091B601F091B70181E046
:101210008583CF91DF91FF91EF91BF91AF919F9126
:101220008F917F916F914F913F912F910F900092ED
:101230005B000F900FBE0F901F901895DF93CF9318
:1012400000D0CDB7DEB79A83898389819A8124E063
:1012500000002A95E9F70197D1F72093B8010F9084
:101260000F90CF91DF910895DF93CF9300D00F922D
:10127000CDB7DEB79A83898304C088EE93E00E94DD
:101280001E091B8289819A81009711F081E08B836E
:1012900089819A8101979A8389838B81882369F751
:1012A0000F900F900F90CF91DF910895F894FFCF9A
:1012B0003031003033003037003046003146000016
:1012C000010301060109010C0138300043300045DB
:1012D000300046300046380019011C011F01220170
:1012E00025013231003941003434003132003201FD
:1012F0003501380119013B013038003130003139F6
:101300000032330032450048014B014E0151015477
:101310000145490044490047490043480030313203
:101320003334353637383941424344454644523DDB
:10133000000000777781010000000000010000003C
:0413400000000100A8
:00000001FF
