:100000000C9446000C9465000C9465000C946500FB
:100010000C9465000C9465000C9465000C946500CC
:100020000C947E070C9465000C9465000C9465009C
:100030000C9465000C9465000C9465000C946500AC
:100040000C9465000C9465000C9465000C9465009C
:100050000C94C5060C9464090C9465000C9465001E
:100060000C9465000C9465000C9465000C9465007C
:100070000C9465000C94DA090C9465000C946500EE
:100080000C9465000C9465000C94650011241FBE4F
:10009000CFEFD0E4DEBFCDBF13E0A0E0B1E0E6E4F7
:1000A000F8E100E00BBF02C007900D92A436B10743
:1000B000D9F713E0A4E6B3E001C01D92A638B1075A
:1000C000E1F70E9467000C94210C0C940000DF9370
:1000D000CF930F92CDB7DEB7198288EE97E00E94DA
:1000E000E00386E198E00E94F20380E060E048E9E6
:1000F00020E430E00E9498070E9405060E94510605
:100100000E94A9060E948A06837089838981882FAC
:1001100090E0880F991FFC01E15FFE4F2081318143
:1001200081E691E0B9010E9432048981882F90E034
:10013000880F991FFC01E85DFE4F2081318184E624
:1001400091E0B9010E9432048981882F90E0880FE4
:10015000991FFC01E25CFE4F2081318187E691E02E
:10016000B9010E9432048981882F90E0880F991F7D
:10017000FC01E95AFE4F208131818AE691E0B90104
:100180000E94320478940E94CB0080E090E00F90AF
:10019000CF91DF910895DF93CF93CDB7DEB764970A
:1001A0000FB6F894DEBF0FBECDBF80E00E94D70B24
:1001B000998B888B81E00E94D70B9F878E8782E086
:1001C0000E94D70B9D878C8780E00E94100C9B8734
:1001D0008A871D821C821B821A828A8189830E94DF
:1001E000BA069B8B8A8BEA89FB898081827088237F
:1001F00071F09C8181E0982781E08927882339F478
:100200008A81898381E08A8381E08C832FC0EA8997
:10021000FB8980818270882349F48C8191E0892751
:10022000882321F489818A831C8220C0EA89FB8982
:1002300080818470882371F09D8181E0982781E01E
:100240008927882339F48A81898382E08A8381E03F
:100250008D830CC0EA89FB8980818470882331F406
:100260008D81882319F089818A831D828C8191E098
:100270008927882339F18D8191E08927882311F11D
:10028000EA89FB8980818870882391F09B8181E0D5
:10029000982781E08927882359F41C8A8A8188233A
:1002A00011F481E08C8B8C898A8381E08B830AC076
:1002B000EA89FB8980818870882321F48B818823D7
:1002C00009F01B82EA89FB8981818072882339F0D9
:1002D0008CE98F8384E68E8381E08A834AC0EA8931
:1002E000FB8981818074882339F084E68F838CE9CF
:1002F0008E8382E08A833DC0EA89FB898281829570
:100300008F708987EA89FB8982818F7088878985C8
:10031000282F30E08885482F50E0C901880F991FA9
:10032000820F931F9C01220F331F220F331F820F56
:10033000931F840F951FFC01E359FE4F80818F832B
:100340008985282F30E08885482F50E0C901880F23
:10035000991F820F931F9C01220F331F220F331FFF
:10036000820F931F840F951FFC01E25BFD4F80817C
:100370008E83E889F9890190F081E02D81E06F8119
:100380000995EE85FF850190F081E02D81E06E8179
:100390000995EC85FD850190F081E02D8A8164E668
:1003A0000995EA85FB8520813181EA89FB89808175
:1003B0008170F90109958FE090E00E94660A0FCFE5
:1003C000DF93CF930F92CDB7DEB78983E8EBF0E0F0
:1003D00089818083E9EBF0E01082ECEBF0E084E0CF
:1003E00080830F90CF91DF910895DF93CF9300D05A
:1003F00000D00F92CDB7DEB79C838B83ECEBF0E09F
:1004000084EA8083ECEBF0E080818823DCF7E9EB81
:10041000F0E08081882F90E0887F9070883091058F
:1004200009F04EC0ABEBB0E0EB81FC818081880F1E
:100430008C93ECEBF0E084E88083ECEBF0E08081DF
:100440008823DCF7E9EBF0E08081882F90E0887F5B
:10045000907088319105A1F51A82EB81FC8183812E
:10046000898324C0ABEBB0E0EB81FC812181328138
:100470008A81882F90E0F901E80FF91F80818C9321
:10048000ECEBF0E084E88083ECEBF0E08081882303
:10049000DCF7E9EBF0E08081882F90E0887F9070B6
:1004A0008832910569F48A818F5F8A839A81898174
:1004B0009817C0F2ECEBF0E084E980831D8206C05F
:1004C000ECEBF0E084E9808381E08D838D810F90F7
:1004D0000F900F900F900F90CF91DF910895DF93C1
:1004E000CF9300D000D00F92CDB7DEB79C838B8323
:1004F000ECEBF0E084EA8083ECEBF0E08081882391
:10050000DCF7E9EBF0E08081882F90E0887F907045
:100510008830910509F075C0ABEBB0E0EB81FC8150
:100520008081882F90E0880F991F81608C93ECEB7D
:10053000F0E084E88083ECEBF0E080818823DCF756
:10054000E9EBF0E08081882F90E0887F9070803424
:10055000910509F056C01A82EB81FC818681815099
:10056000898324C0ECEBF0E084EC8083ECEBF0E0DA
:1005700080818823DCF7E9EBF0E08081882F90E030
:10058000887F907080359105E1F5EB81FC812481B5
:1005900035818A81882F90E0D901A80FB91FEBEB34
:1005A000F0E080818C938A818F5F8A839A81898130
:1005B0009817C0F2ECEBF0E084E88083ECEBF0E01D
:1005C00080818823DCF7E9EBF0E08081882F90E0E0
:1005D000887F907080359105A1F4EB81FC812481A6
:1005E00035818981882F90E0D901A80FB91FEBEBE5
:1005F000F0E080818C93ECEBF0E084E980831D8255
:1006000006C0ECEBF0E084E9808381E08D838D818E
:100610000F900F900F900F900F90CF91DF91089552
:10062000DF93CF9300D000D00F92CDB7DEB79C837D
:100630008B83ECEBF0E084EA8083ECEBF0E08081EC
:100640008823DCF7E9EBF0E08081882F90E0887F59
:1006500090708830910509F0A4C0ABEBB0E0EB815D
:10066000FC818081882F90E0880F991F81608C9396
:10067000ECEBF0E084E88083ECEBF0E08081882311
:10068000DCF7E9EBF0E08081882F90E0887F9070C4
:100690008034910509F085C01A82EB81FC81838149
:1006A000898325C0ABEBB0E0EB81FC8121813281F5
:1006B0008A81882F90E0F901E80FF91F80818C93DF
:1006C000ECEBF0E084E88083ECEBF0E080818823C1
:1006D000DCF7E9EBF0E08081882F90E0887F907074
:1006E0008832910509F05DC08A818F5F8A839A8183
:1006F00089819817B8F21A82EB81FC81868181503A
:10070000898324C0ECEBF0E084EC8083ECEBF0E038
:1007100080818823DCF7E9EBF0E08081882F90E08E
:10072000887F907080359105E1F5EB81FC81248113
:1007300035818A81882F90E0D901A80FB91FEBEB92
:10074000F0E080818C938A818F5F8A839A8189818E
:100750009817C0F2ECEBF0E084E88083ECEBF0E07B
:1007600080818823DCF7E9EBF0E08081882F90E03E
:10077000887F907080359105A1F4EB81FC81248104
:1007800035818981882F90E0D901A80FB91FEBEB43
:10079000F0E080818C93ECEBF0E084E980831D82B3
:1007A00006C0ECEBF0E084E9808381E08D838D81ED
:1007B0000F900F900F900F900F90CF91DF910895B1
:1007C000DF93CF9300D0CDB7DEB79A838983898139
:1007D0009A8190936503809364030F900F90CF915B
:1007E000DF910895DF93CF9300D0CDB7DEB79A8322
:1007F000898389819A8190936703809366030F9020
:100800000F90CF91DF910895DF93CF9300D00F9297
:10081000CDB7DEB789837B836A83898182958F70A8
:10082000882F90E0FC01E15DFC4F8081EA81FB8133
:1008300080838A819B81DC0111968981882F90E0D9
:100840008F709070FC01E15DFC4F80818C938A81F8
:100850009B81FC01329610820F900F900F90CF91E8
:10086000DF9108950F931F93DF93CF93CDB7DEB73A
:1008700060970FB6F894DEBF0FBECDBF9D878C8703
:100880007F876E87E0916403F091650380E40995AA
:100890002091640330916503EC85FD858081F90129
:1008A000099520916403309165038C859D85FC0139
:1008B00031968081F90109950EC020916403309131
:1008C0006503EE85FF858081F90109958E859F85F9
:1008D00001969F878E87EE85FF858081882369F743
:1008E000E0916403F09165038DE00995E091640364
:1008F000F09165038AE0099519822EC08981082F3D
:1009000010E0E0916603F09167030995282FCE016E
:100910000296FC01E00FF11F208389818823C9F032
:100920008981882F90E09C0121503040CE010296B1
:10093000FC01E20FF31F80818D3059F48981282F4B
:1009400030E0CE010296FC01E20FF31F80818A3075
:1009500031F089818F5F898389818A3078F28B8138
:10096000853431F48C81823519F481E0888B01C0A3
:10097000188A888960960FB6F894DEBF0FBECDBF87
:10098000CF91DF911F910F9108950F931F93DF93E4
:10099000CF93CDB7DEB760970FB6F894DEBF0FBE2A
:1009A000CDBF9D878C877F876E87E0916403F09130
:1009B000650380E409952091640330916503EC851B
:1009C000FD858081F90109952091640330916503CB
:1009D0008C859D85FC0131968081F90109950EC0B9
:1009E0002091640330916503EE85FF858081F901D4
:1009F00009958E859F8501969F878E87EE85FF8559
:100A00008081882369F7E0916403F09165038FE2A8
:100A10000995E0916403F091650387E50995E091FC
:100A20006403F09165038DE00995E0916403F09112
:100A300065038AE0099519822EC08981082F10E08C
:100A4000E0916603F09167030995282FCE01029685
:100A5000FC01E00FF11F208389818823C9F089817F
:100A6000882F90E09C0121503040CE010296FC017D
:100A7000E20FF31F80818D3059F48981282F30E0F7
:100A8000CE010296FC01E20FF31F80818A3031F023
:100A900089818F5F898389818A3078F28B8185345F
:100AA00031F48C81823519F481E0888B01C0188A79
:100AB000888960960FB6F894DEBF0FBECDBFCF9188
:100AC000DF911F910F9108950F931F93DF93CF93A1
:100AD000CDB7DEB762970FB6F894DEBF0FBECDBFBD
:100AE000988B8F87698B9E01245F3F4F8989B9015D
:100AF0000E940404E0916403F091650380E4099589
:100B0000E0916403F091650384E40995E091640346
:100B1000F091650384E50995E0916403F091650324
:100B20008C850995E0916403F09165038D850995A5
:100B3000198212C040916403509165038981282F66
:100B400030E08F859889FC01E20FF31F8081FA0164
:100B5000099589818F5F898399818989981750F3D5
:100B6000E0916403F09165038DE00995E0916403E1
:100B7000F09165038AE0099519822EC08981082FBA
:100B800010E0E0916603F09167030995282FCE01EC
:100B90000296FC01E00FF11F208389818823C9F0B0
:100BA0008981882F90E09C0121503040CE0102962F
:100BB000FC01E20FF31F80818D3059F48981282FC9
:100BC00030E0CE010296FC01E20FF31F80818A30F3
:100BD00031F089818F5F898389818A3078F28B81B6
:100BE000853431F48C81823519F481E08A8B01C01F
:100BF0001A8A8A8962960FB6F894DEBF0FBECDBFFF
:100C0000CF91DF911F910F910895DF93CF93CDB7CF
:100C1000DEB7A1E2B0E0E1E2F0E0808187608C9392
:100C2000A2E2B0E0E2E2F0E0808187608C93CF91B5
:100C3000DF910895DF93CF9300D0CDB7DEB78983DE
:100C40006A838A818823A9F0A2E2B0E0E2E2F0E0C0
:100C50008081482F8981282F30E081E090E0022EAA
:100C600002C0880F991F0A94E2F7809584238C9321
:100C700013C0A2E2B0E0E2E2F0E08081482F898177
:100C8000282F30E081E090E0022E02C0880F991FEB
:100C90000A94E2F7842B8C930F900F90CF91DF9101
:100CA0000895DF93CF93CDB7DEB7A4E2B0E0E4E2DE
:100CB000F0E08081807F8C93A5E2B0E0E5E2F0E097
:100CC00080818F608C93CF91DF910895DF93CF93D4
:100CD00000D0CDB7DEB78A83E3E2F0E08081809573
:100CE00089838981282F30E08A81882F90E00197BD
:100CF000A90102C0559547958A95E2F7CA018983F3
:100D00008981882F90E0817090700F900F90CF9123
:100D1000DF910895DF93CF93CDB7DEB7E3E2F0E044
:100D2000808180958F70CF91DF910895DF93CF936D
:100D3000CDB7DEB7A895A0E6B0E0E0E6F0E08081B0
:100D400088618C93E0E6F0E085E08083CF91DF91CD
:100D50000895DF93CF93CDB7DEB783E493E090930C
:100D600048038093470310926B030E949606CF912D
:100D7000DF910895DF93CF93CDB7DEB7809147031E
:100D800090914803CF91DF9108951F920F920FB673
:100D90000F9200905B000F9211242F933F934F937B
:100DA0005F936F937F938F939F93AF93BF93EF93D3
:100DB000FF93DF93CF930F92CDB7DEB7E6ECF0E071
:100DC00080818093800380916B03813009F076C02D
:100DD00080916A03882F90E020918003FC01EC58F9
:100DE000FC4F208380916A038230A0F480916A03D3
:100DF000882F90E0FC01E15CFC4F908180918003A2
:100E0000981709F455C010926B0380E060E00E94CF
:100E10001A064EC080916A03883009F049C080915B
:100E20006903882F90E0880F991F880F991F8459B4
:100E30009C4F9093820380938103E0918103F09112
:100E40008203809179038083809181039091820352
:100E5000FC01319680917A03808380918103909187
:100E60008203FC01329680917B0380838091810311
:100E700090918203FC01339680917C038083809162
:100E8000810390918203909348038093470380915C
:100E900069031982882311F481E089838981809311
:100EA000690310926B0380E061E00E941A06A89526
:100EB00080916A038F5F80936A0309C080918003E9
:100EC0008A3229F410926A0381E080936B030F90B9
:100ED000CF91DF91FF91EF91BF91AF919F918F9152
:100EE0007F916F915F914F913F912F910F90009261
:100EF0005B000F900FBE0F901F9018951F920F92DE
:100F00000FB60F9211248F939F93DF93CF93CDB79A
:100F1000DEB783E493E09093480380934703CF9137
:100F2000DF919F918F910F900FBE0F901F9018959A
:100F3000DF93CF93CDB7DEB727970FB6F894DEBF18
:100F40000FBECDBF89836A834B833D832C83898108
:100F5000282F30E03F832E838E819F81009731F0D0
:100F60002E813F8121303105B1F029C0E2ECF0E063
:100F70008A8186608083E1ECF0E08B818083E5EC00
:100F8000F0E08C819D81892F99278083E4ECF0E04B
:100F90008C81808314C0EAECF0E08A8186608083D3
:100FA000E9ECF0E08B818083EDECF0E08C819D81B9
:100FB000892F99278083ECECF0E08C818083279641
:100FC0000FB6F894DEBF0FBECDBFCF91DF9108956D
:100FD000DF93CF930F92CDB7DEB78983E0ECF0E0DB
:100FE0008081882F90E0807290700097B9F3E6ECD2
:100FF000F0E0898180830F90CF91DF910895DF9396
:10100000CF930F92CDB7DEB78983E8ECF0E0808113
:10101000882F90E0807290700097B9F3EEECF0E0CA
:10102000898180830F90CF91DF910895DF93CF93D3
:10103000CDB7DEB7E0ECF0E080818823DCF7E6ECAA
:10104000F0E08081CF91DF910895DF93CF93CDB70A
:10105000DEB7E8ECF0E080818823DCF7EEECF0E02E
:101060008081CF91DF910895DF93CF9300D0CDB7EA
:10107000DEB79A8389830BC0E981FA812081898157
:101080009A8101969A838983822F0E94E807E981D9
:10109000FA818081882381F70F900F90CF91DF91A3
:1010A0000895DF93CF9300D0CDB7DEB79A838983BD
:1010B0000BC0E981FA81208189819A8101969A8306
:1010C0008983822F0E94FF07E981FA81808188232A
:1010D00081F70F900F90CF91DF910895DF93CF9319
:1010E00000D000D0CDB7DEB789837B836A834C8381
:1010F0008981282F30E0C901880F991F820F931F23
:101100000196880F991FFC01E75BFC4F8A819B8148
:10111000918380838981282F30E0C901880F991F2E
:10112000820F931F880F991FFC01E35BFC4F8C819A
:1011300080830F900F900F900F90CF91DF910895C3
:10114000DF93CF9300D0CDB7DEB79A83898389E44C
:1011500093E0909384038093830349C0E0918303D9
:10116000F0918403958181E08927882361F0E091E3
:101170008303F09184039081E0918303F0918403D1
:1011800081819817D1F1E0918303F091840322814A
:1011900033814091830350918403FA016181862F4A
:1011A00090E0D901A80FB91FE981FA8180818C9361
:1011B000862F8F5FFA01818389819A8101969A83B4
:1011C0008983E0918303F09184039181E09183030B
:1011D000F09184038481981729F4E0918303F091BE
:1011E00084031182E0918303F09184031582E981E5
:1011F000FA818081882309F0B1CF0F900F90CF91B1
:10120000DF910895DF93CF9300D0CDB7DEB79A83F7
:1012100089838FE493E0909384038093830349C090
:10122000E0918303F0918403958181E089278823ED
:1012300061F0E0918303F09184039081E091830356
:10124000F091840381819817D1F1E0918303F091AB
:101250008403228133814091830350918403FA01F6
:101260006181862F90E0D901A80FB91FE981FA8129
:1012700080818C93862F8F5FFA01818389819A8187
:1012800001969A838983E0918303F091840391818D
:10129000E0918303F09184038481981729F4E0910D
:1012A0008303F09184031182E0918303F09184031E
:1012B0001582E981FA818081882309F0B1CF0F90EE
:1012C0000F90CF91DF9108951F920F920FB60F925A
:1012D00000905B000F9211242F933F934F936F93D5
:1012E0007F938F939F93AF93BF93EF93FF93DF937E
:1012F000CF93CDB7DEB789E493E0909384038093D6
:101300008303E0918303F0918403958181E0892731
:101310008823D9F166EC70E0E0918303F0918403B7
:1013200022813381A0918303B09184034C91842F57
:1013300090E0F901E80FF91F8081FB018083842F81
:101340008F5F8C93E0918303F09184039081E0910F
:101350008303F09184038481981729F4E091830337
:10136000F09184031082E0918303F09184039081D3
:10137000E0918303F09184038181981731F4E09127
:101380008303F091840381E08583CF91DF91FF9106
:10139000EF91BF91AF919F918F917F916F914F91FD
:1013A0003F912F910F9000925B000F900FBE0F9016
:1013B0001F9018951F920F920FB60F9200905B002E
:1013C0000F9211242F933F934F936F937F938F939B
:1013D0009F93AF93BF93EF93FF93DF93CF93CDB7DB
:1013E000DEB78FE493E09093840380938303E091CE
:1013F0008303F0918403958181E089278823D9F1C3
:101400006EEC70E0E0918303F091840322813381DC
:10141000A0918303B09184034C91842F90E0F90153
:10142000E80FF91F8081FB018083842F8F5F8C93ED
:10143000E0918303F09184039081E0918303F09124
:1014400084038481981729F4E0918303F091840345
:101450001082E0918303F09184039081E0918303F3
:10146000F09184038181981731F4E0918303F09126
:10147000840381E08583CF91DF91FF91EF91BF914C
:10148000AF919F918F917F916F914F913F912F914C
:101490000F9000925B000F900FBE0F901F90189559
:1014A000DF93CF9300D0CDB7DEB79A83898389814C
:1014B0009A8124E000002A95E9F70197D1F720935B
:1014C00085030F900F90CF91DF910895DF93CF9315
:1014D00000D00F92CDB7DEB79A83898304C088EE1F
:1014E00093E00E94500A1B8289819A81009711F033
:1014F00081E08B8389819A8101979A8389838B818B
:10150000882369F70F900F900F90CF91DF91089586
:10151000DF93CF9300D000D000D0CDB7DEB78C835F
:101520007E836D838C81882364F48C8181958A838A
:10153000ED81FE81908183E08927ED81FE818083AA
:1015400002C08C818A838A81880F89838A818695EB
:101550008B8399818B81890F89838B818695869571
:1015600086958A838A8186958B838A81282F30E0AD
:101570008B81882F90E0A901481B590BCA019595D2
:101580008795982F8A81582F591B952F8981890F0C
:101590008983898126960FB6F894DEBF0FBECDBF32
:1015A000CF91DF9108950F931F93DF93CF9300D0D6
:1015B000CDB7DEB789836A8307E410E08A819E0194
:1015C0002F5F3F4FB9010E94880AF8018083A2E093
:1015D000B0E0FE01319680818170982F91708C91DE
:1015E0008E7F892B8C93A2E0B0E0FE013196808142
:1015F00086958170982F91708C918E7F892B8C931A
:101600000F900F90CF91DF911F910F9108950F933D
:101610001F93DF93CF9300D0CDB7DEB789836A8362
:1016200007E410E08A819E012F5F3F4FB9010E94BD
:10163000880AF8018083A2E0B0E0FE013196808143
:101640008170982F91708C918E7F892B8C93A2E062
:10165000B0E0FE013196808186958170982F91705F
:101660008C918E7F892B8C930F900F90CF91DF916F
:101670001F910F9108950F931F93DF93CF9300D085
:10168000CDB7DEB789836A8307E410E08A819E01C3
:101690002F5F3F4FB9010E94880AF8018083A2E0C2
:1016A000B0E0FE01319680818170982F91708C910D
:1016B0008E7F892B8C93A2E0B0E0FE013196808171
:1016C00086958170982F91708C918E7F892B8C9349
:1016D0000F900F90CF91DF911F910F9108950F936D
:1016E0001F93DF93CF9300D0CDB7DEB789836A8392
:1016F00007E410E08A819E012F5F3F4FB9010E94ED
:10170000880AF8018083A2E0B0E0FE013196808172
:101710008170982F91708C918E7F892B8C93A2E091
:10172000B0E0FE013196808186958170982F91708E
:101730008C918E7F892B8C930F900F90CF91DF919E
:101740001F910F9108950F931F93DF93CF9300D0B4
:10175000CDB7DEB789836A8307E410E08A819E01F2
:101760002F5F3F4FB9010E94880AF8018083A2E0F1
:10177000B0E0FE01319680818170982F91708C913C
:101780008E7F892B8C93A2E0B0E0FE0131968081A0
:1017900086958170982F91708C918E7F892B8C9378
:1017A0000F900F90CF91DF911F910F910895DF93CC
:1017B000CF930F92CDB7DEB789838981882F90E0D0
:1017C000880F991F8B5A9C4F0F90CF91DF910895EE
:1017D000DF93CF930F92CDB7DEB78983E2E0F0E0DD
:1017E00089818170982F917080818E7F892B808371
:1017F0000F90CF91DF910895DF93CF930F92CDB7E4
:10180000DEB78983E2E0F0E089818170982F9170E2
:1018100080818E7F892B80830F90CF91DF910895F7
:10182000DF93CF930F92CDB7DEB789838981882F5D
:1018300090E0880F991F815A9C4F0F90CF91DF91B4
:061840000895F894FFCFAB
:10184600303100303300303700304600314600007A
:10185600010301060109010C01383000433000453F
:10186600300046300046380019011C011F012201D4
:101876002501323100394100343400313200320161
:101886003501380119013B0130380031300031395A
:101896000032330032450048014B014E01510154DC
:1018A6000145490044490047490043480000040CEB
:1018B60018293D5664646464646464640000040C1E
:1018C60018293D5664646464646464000000040C72
:1018D60018293D5664646464646400000000040CC6
:1018E60018293D5664646464640000000000040C1A
:1018F60018293D5664646464000000000000040C6E
:1019060018293D5664646400000000000000040CC1
:1019160018293D5664640000000000000000040C15
:1019260018293D5664000000000000FCFC00081465
:10193600253952640000000000F8F4F4F8000C1D8C
:1019460031496400000000F4ECE8E8ECF4001025EE
:101956003D5A000000F0E3DBD7D7DBE3F000142D9F
:10196600490000ECDBCFC7C3C3C7CFDBEC0018359B
:1019760000E8D3C3B7AEAAAAAEB7C3D3E8001DE347
:10198600CBB7A69C9C9C9C9C9CA6B7CBE3006464AE
:10199600646464646464563D29180C0400646464D9
:1019A60064646464563D29180C040000646464642D
:1019B6006464563D29180C04000000646464646481
:1019C600563D29180C040000000064646464563D0A
:1019D60029180C040000000000646464563D2918B0
:1019E6000C040000000000006464563D29180C0435
:1019F6000000000000000064563D29180C04000099
:101A060000000000000064523925140800FCFC00A8
:101A160000000000006449311D0C00F8F4F4F800E1
:101A2600000000005A3D251000F4ECE8E8ECF40054
:101A3600000000492D1400F0E3DBD7D7DBE3F0000C
:101A46000000351800ECDBCFC7C3C3C7CFDBEC0003
:101A5600001D00E8D3C3B7AEAAAAAEB7C3D3E80049
:101A660000E3CBB7A69C9C9C9C9C9CA6B7CBE33082
:101A760031323334353637383941424344454644AA
:101A8600523D00000077774303000000000001008C
:101A96000000000001D30A070B3B0B6F0BA30BE8FA
:041AA6000BFC0B002A
:00000001FF
