:100000000C9446000C9465000C9465000C946500FB
:100010000C9465000C9465000C9465000C946500CC
:100020000C9465000C9465000C9465000C946500BC
:100030000C9465000C9465000C9465000C946500AC
:100040000C9465000C9465000C9465000C9465009C
:100050000C9499050C9433050C94CD040C94650014
:100060000C9465000C9465000C9465000C9465007C
:100070000C94CC050C9466050C9400050C9465005A
:100080000C9465000C9465000C94650011241FBE4F
:10009000CFEFD0E4DEBFCDBF11E0A0E0B1E0E8EBF0
:1000A000F0E100E00BBF02C007900D92A031B10754
:1000B000D9F711E0A0E1B1E001C01D92A132B10772
:1000C000E1F70E9467000C945A080C9400000F930B
:1000D0001F93DF93CF93CDB7DEB72A970FB6F8946F
:1000E000DEBF0FBECDBF198281E08C83CE010296A8
:1000F0009E838D8381E08F83CE010296019699873E
:10010000888781E08A8784E690E00E942A010E9425
:100110001501A7E2B0E0E7E2F0E0808184608C9313
:10012000A8E2B0E0E8E2F0E080818B7F8C9380E091
:1001300061E00E94DB0081E061E00E94DB0082E080
:1001400061E00E94DB0084EF91E00E944C0380E0BC
:1001500060E00E94DB0081E060E00E94DB0082E062
:1001600060E00E94DB0084EF91E00E944C03198262
:100170008981082F10E0CE0104960E944B01882F40
:1001800090E0802B912B1982009711F081E08983F8
:1001900080E069810E94DB00998181E08927882FB6
:1001A00090E0982F81E0692F0E94DB008AE090E0C8
:1001B0000E944C03DCCFDF93CF9300D0CDB7DEB7E6
:1001C00089836A838981833058F58A818823A9F0DD
:1001D000A2E2B0E0E2E2F0E08081482F8981282F9E
:1001E00030E081E090E0022E02C0880F991F0A944F
:1001F000E2F7809584238C9313C0A2E2B0E0E2E2A0
:10020000F0E08081482F8981282F30E081E090E064
:10021000022E02C0880F991F0A94E2F7842B8C9358
:100220000F900F90CF91DF910895DF93CF93CDB7CB
:10023000DEB7A1E2B0E0E1E2F0E0808187608C937C
:10024000A2E2B0E0E2E2F0E0808187608C93CF919F
:10025000DF910895DF93CF9300D0CDB7DEB79A83B7
:100260008983E8EBF0E080E29EE429813A81B901DC
:100270000E942408CB014097969587958083E9EBEF
:10028000F0E01082ECEBF0E084E080830F900F90C0
:10029000CF91DF910895DF93CF9300D000D00F92DC
:1002A000CDB7DEB79C838B83ECEBF0E084EA8083F0
:1002B000ECEBF0E080818823DCF7E9EBF0E0808173
:1002C000882F90E0887F90708830910509F04EC0AB
:1002D000ABEBB0E0EB81FC818081880F8C93ECEB81
:1002E000F0E084E88083ECEBF0E080818823DCF7A9
:1002F000E9EBF0E08081882F90E0887F9070883172
:100300009105A1F51A82EB81FC818381898324C048
:10031000ABEBB0E0EB81FC81218132818A81882FB7
:1003200090E0F901E80FF91F80818C93ECEBF0E08D
:1003300084E88083ECEBF0E080818823DCF7E9EB54
:10034000F0E08081882F90E0887F9070883291055E
:1003500069F48A818F5F8A839A8189819817C0F2B4
:10036000ECEBF0E084E980831D8206C0ECEBF0E06A
:1003700084E9808381E08D838D810F900F900F90B1
:100380000F900F90CF91DF910895DF93CF9300D01E
:1003900000D00F92CDB7DEB79C838B83ECEBF0E0FF
:1003A00084EA8083ECEBF0E080818823DCF7E9EBE2
:1003B000F0E08081882F90E0887F907088309105F0
:1003C00009F075C0ABEBB0E0EB81FC818081882F38
:1003D00090E0880F991F81608C93ECEBF0E084E84B
:1003E0008083ECEBF0E080818823DCF7E9EBF0E040
:1003F0008081882F90E0887F90708034910509F08B
:1004000056C01A82EB81FC8186818150898324C089
:10041000ECEBF0E084EC8083ECEBF0E0808188236F
:10042000DCF7E9EBF0E08081882F90E0887F907026
:1004300080359105E1F5EB81FC81248135818A814C
:10044000882F90E0D901A80FB91FEBEBF0E0808175
:100450008C938A818F5F8A839A8189819817C0F2F1
:10046000ECEBF0E084E88083ECEBF0E08081882323
:10047000DCF7E9EBF0E08081882F90E0887F9070D6
:1004800080359105A1F4EB81FC812481358189813E
:10049000882F90E0D901A80FB91FEBEBF0E0808125
:1004A0008C93ECEBF0E084E980831D8206C0ECEBDA
:1004B000F0E084E9808381E08D838D810F900F903F
:1004C0000F900F900F90CF91DF910895DF93CF930E
:1004D00000D000D00F92CDB7DEB79C838B83ECEBBE
:1004E000F0E084EA8083ECEBF0E080818823DCF7A5
:1004F000E9EBF0E08081882F90E0887F9070883071
:10050000910509F0A4C0ABEBB0E0EB81FC818081E8
:10051000882F90E0880F991F81608C93ECEBF0E0BE
:1005200084E88083ECEBF0E080818823DCF7E9EB62
:10053000F0E08081882F90E0887F90708034910572
:1005400009F085C01A82EB81FC818381898325C0F3
:10055000ABEBB0E0EB81FC81218132818A81882F75
:1005600090E0F901E80FF91F80818C93ECEBF0E04B
:1005700084E88083ECEBF0E080818823DCF7E9EB12
:10058000F0E08081882F90E0887F9070883291051C
:1005900009F05DC08A818F5F8A839A81898198176B
:1005A000B8F21A82EB81FC8186818150898324C054
:1005B000ECEBF0E084EC8083ECEBF0E080818823CE
:1005C000DCF7E9EBF0E08081882F90E0887F907085
:1005D00080359105E1F5EB81FC81248135818A81AB
:1005E000882F90E0D901A80FB91FEBEBF0E08081D4
:1005F0008C938A818F5F8A839A8189819817C0F250
:10060000ECEBF0E084E88083ECEBF0E08081882381
:10061000DCF7E9EBF0E08081882F90E0887F907034
:1006200080359105A1F4EB81FC812481358189819C
:10063000882F90E0D901A80FB91FEBEBF0E0808183
:100640008C93ECEBF0E084E980831D8206C0ECEB38
:10065000F0E084E9808381E08D838D810F900F909D
:100660000F900F900F90CF91DF910895DF93CF936C
:1006700000D0CDB7DEB79A83898389819A8124E03F
:1006800000002A95E9F70197D1F7209310010F9008
:100690000F90CF91DF910895DF93CF9300D00F9209
:1006A000CDB7DEB79A83898304C088EE93E00E94B9
:1006B00036031B8289819A81009711F081E08B8338
:1006C00089819A8101979A8389838B81882369F72D
:1006D0000F900F900F90CF91DF9108950F931F937C
:1006E000DF93CF93CDB7DEB72D970FB6F894DEBF6B
:1006F0000FBECDBF8D836E834F83088719872A87EE
:100700003B8780E291EAA7E0B0E0288539854A85F9
:100710005B85BC01CD010E943808DA01C90101974F
:10072000A109B10989839A83AB83BC838D81282F6A
:1007300030E03D872C878C859D85009731F02C8596
:100740003D8521303105D1F031C0E2ECF0E08E8101
:1007500086608083E1ECF0E08F818083E5ECF0E05F
:1007600089819A81AB81BC81892F9A2FAB2FBB27BE
:100770008083E4ECF0E08981808318C0EAECF0E04B
:100780008E8186608083E9ECF0E08F818083EDECE0
:10079000F0E089819A81AB81BC81892F9A2FAB2FA0
:1007A000BB278083ECECF0E0898180832D960FB627
:1007B000F894DEBF0FBECDBFCF91DF911F910F9197
:1007C0000895DF93CF930F92CDB7DEB78983E0EC26
:1007D000F0E08081882F90E0807290700097B9F3EC
:1007E000E6ECF0E0898180830F90CF91DF9108954E
:1007F000DF93CF930F92CDB7DEB78983E8ECF0E0BB
:100800008081882F90E0807290700097B9F3EEECB1
:10081000F0E0898180830F90CF91DF910895DF937D
:10082000CF93CDB7DEB7E0ECF0E080818823DCF732
:10083000E6ECF0E08081CF91DF910895DF93CF93D4
:10084000CDB7DEB7E8ECF0E080818823DCF7EEEC92
:10085000F0E08081CF91DF910895DF93CF9300D0B6
:10086000CDB7DEB79A8389830BC0E981FA812081F5
:1008700089819A8101969A838983822F0E94E1035C
:10088000E981FA818081882381F30F900F90CF91C5
:10089000DF910895DF93CF9300D0CDB7DEB79A8371
:1008A00089830BC0E981FA81208189819A8101962F
:1008B0009A838983822F0E94F803E981FA818081DB
:1008C000882381F30F900F90CF91DF910895DF93EC
:1008D000CF9300D00F92CDB7DEB789837B836A8335
:1008E0008981882339F48A819B81909312018093B6
:1008F000110109C08981813031F48A819B819093F3
:100900001401809313010F900F900F90CF91DF91FE
:100910000895DF93CF9300D00F92CDB7DEB78983D0
:100920007B836A838981882339F48A819B819093B0
:1009300016018093150109C08981813031F48A81C3
:100940009B8190931801809317010F900F900F9047
:10095000CF91DF910895DF93CF9300D00F92CDB761
:10096000DEB789837B836A838981882339F48A810E
:100970009B8190931A018093190109C0898181306C
:1009800031F48A819B8190931C0180931B010F900D
:100990000F900F90CF91DF9108951F920F920FB695
:1009A0000F9200905B000F9211242F933F934F936F
:1009B0005F936F937F938F939F93AF93BF93EF93C7
:1009C000FF93DF93CF93CDB7DEB7E0911101F091A4
:1009D00012010995CF91DF91FF91EF91BF91AF91F6
:1009E0009F918F917F916F915F914F913F912F9147
:1009F0000F9000925B000F900FBE0F901F90189504
:100A00001F920F920FB60F9200905B000F9211246D
:100A10002F933F934F935F936F937F938F939F9306
:100A2000AF93BF93EF93FF93DF93CF93CDB7DEB731
:100A3000E0911301F09114010995CF91DF91FF919D
:100A4000EF91BF91AF919F918F917F916F915F9146
:100A50004F913F912F910F9000925B000F900FBE2E
:100A60000F901F9018951F920F920FB60F92009043
:100A70005B000F9211242F933F934F935F936F93DB
:100A80007F938F939F93AF93BF93EF93FF93DF93E6
:100A9000CF93CDB7DEB7E0911501F091160109951E
:100AA000CF91DF91FF91EF91BF91AF919F918F9186
:100AB0007F916F915F914F913F912F910F90009295
:100AC0005B000F900FBE0F901F9018951F920F9212
:100AD0000FB60F9200905B000F9211242F933F935B
:100AE0004F935F936F937F938F939F93AF93BF9336
:100AF000EF93FF93DF93CF93CDB7DEB7E09117016C
:100B0000F09118010995CF91DF91FF91EF91BF917D
:100B1000AF919F918F917F916F915F914F913F9195
:100B20002F910F9000925B000F900FBE0F901F90BF
:100B300018951F920F920FB60F9200905B000F92C4
:100B400011242F933F934F935F936F937F938F93D2
:100B50009F93AF93BF93EF93FF93DF93CF93CDB763
:100B6000DEB7E0911901F0911A010995CF91DF915B
:100B7000FF91EF91BF91AF919F918F917F916F9175
:100B80005F914F913F912F910F9000925B000F90DA
:100B90000FBE0F901F9018951F920F920FB60F92D5
:100BA00000905B000F9211242F933F934F935F931C
:100BB0006F937F938F939F93AF93BF93EF93FF9325
:100BC000DF93CF93CDB7DEB7E0911B01F0911C010D
:100BD0000995CF91DF91FF91EF91BF91AF919F91D7
:100BE0008F917F916F915F914F913F912F910F90D6
:100BF00000925B000F900FBE0F901F901895DF932F
:100C0000CF9300D0CDB7DEB79A83898389819A814B
:100C100090931E0180931D010F900F90CF91DF9153
:100C20000895DF93CF9300D0CDB7DEB79A83898341
:100C300089819A819093200180931F010F900F90DA
:100C4000CF91DF910895DF93CF9300D00F92CDB76E
:100C5000DEB789837B836A83898182958F70882F31
:100C600090E0FC01E050FF4F8081EA81FB818083AE
:100C70008A819B81DC0111968981882F90E08F7099
:100C80009070FC01E050FF4F80818C938A819B81A2
:100C9000FC01329610820F900F900F90CF91DF9150
:100CA00008950F931F93DF93CF93CDB7DEB760976F
:100CB0000FB6F894DEBF0FBECDBF9D878C877F87B0
:100CC0006E87E0911D01F0911E0180E4099520914D
:100CD0001D0130911E01EC85FD858081F90109958A
:100CE00020911D0130911E018C859D85FC0131965E
:100CF0008081F90109950EC020911D0130911E01DE
:100D0000EE85FF858081F90109958E859F85019685
:100D10009F878E87EE85FF858081882369F7E09124
:100D20001D01F0911E018DE00995E0911D01F091EA
:100D30001E018AE0099519822EC08981082F10E0D2
:100D4000E0911F01F09120010995282FCE01029614
:100D5000FC01E00FF11F208389818823C9F089817C
:100D6000882F90E09C0121503040CE010296FC017A
:100D7000E20FF31F80818D3059F48981282F30E0F4
:100D8000CE010296FC01E20FF31F80818A3031F020
:100D900089818F5F898389818A3078F28B8185345C
:100DA00031F48C81823519F481E0888B01C0188A76
:100DB000888960960FB6F894DEBF0FBECDBFCF9185
:100DC000DF911F910F9108950F931F93DF93CF939E
:100DD000CDB7DEB760970FB6F894DEBF0FBECDBFBC
:100DE0009D878C877F876E87E0911D01F0911E01A2
:100DF00080E4099520911D0130911E01EC85FD854F
:100E00008081F901099520911D0130911E018C8589
:100E10009D85FC0131968081F90109950EC02091D4
:100E20001D0130911E01EE85FF858081F901099534
:100E30008E859F8501969F878E87EE85FF858081B1
:100E4000882369F7E0911D01F0911E018FE2099559
:100E5000E0911D01F0911E0187E50995E0911D01CA
:100E6000F0911E018DE00995E0911D01F0911E01A8
:100E70008AE0099519822EC08981082F10E0E0913F
:100E80001F01F09120010995282FCE010296FC0147
:100E9000E00FF11F208389818823C9F08981882F81
:100EA00090E09C0121503040CE010296FC01E20FFF
:100EB000F31F80818D3059F48981282F30E0CE01D5
:100EC0000296FC01E20FF31F80818A3031F08981A4
:100ED0008F5F898389818A3078F28B81853431F400
:100EE0008C81823519F481E0888B01C0188A888949
:100EF00060960FB6F894DEBF0FBECDBFCF91DF91E5
:100F00001F910F9108950F931F93DF93CF93CDB748
:100F1000DEB762970FB6F894DEBF0FBECDBF988BD9
:100F20008F87698B9E01245F3F4F8989B9010E9499
:100F30002306E0911D01F0911E0180E40995E091E6
:100F40001D01F0911E0184E40995E0911D01F091CD
:100F50001E0184E50995E0911D01F0911E018C852B
:100F60000995E0911D01F0911E018D850995198269
:100F700012C040911D0150911E018981282F30E03F
:100F80008F859889FC01E20FF31F8081FA01099592
:100F900089818F5F898399818989981750F3E091BE
:100FA0001D01F0911E018DE00995E0911D01F09168
:100FB0001E018AE0099519822EC08981082F10E050
:100FC000E0911F01F09120010995282FCE01029692
:100FD000FC01E00FF11F208389818823C9F08981FA
:100FE000882F90E09C0121503040CE010296FC01F8
:100FF000E20FF31F80818D3059F48981282F30E072
:10100000CE010296FC01E20FF31F80818A3031F09D
:1010100089818F5F898389818A3078F28B818534D9
:1010200031F48C81823519F481E08A8B01C01A8AEF
:101030008A8962960FB6F894DEBF0FBECDBFCF91FE
:10104000DF911F910F910895AA1BBB1B51E107C0AF
:10105000AA1FBB1FA617B70710F0A61BB70B881F48
:10106000991F5A95A9F780959095BC01CD010895D7
:10107000A1E21A2EAA1BBB1BFD010DC0AA1FBB1F9C
:10108000EE1FFF1FA217B307E407F50720F0A21B0E
:10109000B30BE40BF50B661F771F881F991F1A947B
:1010A00069F760957095809590959B01AC01BD01A5
:0810B000CF010895F894FFCF71
:1010B8003031323334353637383941424344454686
:00000001FF
